:0A01AB003F065B4F666D7D077F6F16
:1001780001180001190010087F3FBF3FDF3FEF3F24
:08018800F73FFB3FFD3FFE3F86
:0E0191000518E4F519E51864087002F5182247
:10013C00C3E51994097480948050020519E519904F
:0E014C0001AB93FFE51825E02409F8A6072271
:10015A00D3E51994007480948040021519E519902A
:0E016A0001AB93FFE51825E02409F8A6072253
:0C019F00E51825E02409F8E64480F6226B
:040112007F147E00D8
:10011600E4FDFCC3ED9FEE6480F8EC648098501516
:10012600E4FBFA0BBB00010AEB64784A70F50DBDDF
:0501360000010C80DE59
:01013B0022A1
:10008F0020B00E12011220B03912013C20B0338083
:10009F00FB20B10E12011220B12812015A20B122F9
:1000AF0080FB20B30E12011220B31712019F20B351
:1000BF001180FB20B20C12011220B20612019130F6
:1000CF00B2FDE4F51AF51BC3E51B9408E51A64802D
:1000DF00948050ACD2A7AF1BEF25E02408F8E6F5CB
:1000EF0080C2A7D2A6EF25E02409F8E6F580C2A6C4
:1000FF00E4F5807F02FE120116051BE51B70C80593
:03010F001A80C48F
:03000000020003F8
:0C000300787FE4F6D8FD75811B02004AEE
:10000F0002008FE493A3F8E493A34003F68001F278
:10001F0008DFF48029E493A3F85407240CC8C333F2
:10002F00C4540F4420C8834004F456800146F6DFC1
:10003F00E4800B0102040810204080900178E47ED8
:10004F00019360BCA3FF543F30E509541FFEE493B6
:10005F00A360010ECF54C025E060A840B8E493A37D
:10006F00FAE493A3F8E493A3C8C582C8CAC583CAA8
:10007F00F0A3C8C582C8CAC583CADFE9DEE780BE60
:01019000006E
:00000001FF
