:10060C003F065B4F666D7D077F6F000000000100A9
:03061C00020003D6
:1004A90002300000080B00010000000200040209EC
:1004B900000302320000022D0000011300010800B0
:1004C90001140010157F00BF00DF00EF00F700FBEB
:0804D90000FD00FE00012F648C
:0605E000C2A67F027E00AE
:1005E600E4FDFCC3ED9FEE6480F8EC648098501542
:1005F600E4FBFA0BBB00010AEB64784A70F50DBD0B
:0506060000010C80DE84
:01060B0022CC
:0404E2008E408F4178
:1004E600E4FBFA740C2BF58274063AF583E493FF69
:1004F600EB25E02416F8A607AE40AF417C007D0A46
:100506001201148E408F410BBB00010AEB64044AB2
:0205160070D1A2
:0105180022C0
:1004300078387C007D007BFF7A0679177E007F0884
:100440001200EEE4F536F53712025DAD37ED25E02A
:100450002425F8A60608A607ED25E02425F8E6FEE3
:1004600008E6240CF58274063EF583E493FFC3741A
:10047000039D25E02438F808E625E02416F8A607B1
:10048000E53764034536700D120519E531453060D6
:1004900004C2A9D2AB0537E53770020536C3940410
:0804A000E5366480948040A061
:0104A8002231
:10051900E4FFFEEF25E0240BF8E6FC08E6FDEF25F5
:10052900E02425F8E6FA08E66D7002EA6C6006E454
:10053900F530F531220FBF00010EEF64044E70D380
:0605490075300075310160
:01054F002289
:1005B300740C2FF58274063EF583E493F524740CD2
:1005C3002DF58274063CF583E4934480F522740C84
:0D05D3002BF58274063AF583E493F520229F
:10058500E4F583F582D2A7AF82EF25E02415F8E6DE
:10059500F580C2A7D2A6AF82EF25E02416F8E6F5CE
:0D05A500801205E0A3E5826408458370D84C
:0105B2002226
:1003040075B0F0AFB0EF64F060591205E2AFB0EF32
:1003140064F0604FAFB0EF2490601B24C0601224DF
:10032400E0600924F07012E4F52F800D752F018030
:1003340008752F028003752F0375B00FAFB0EF243B
:10034400F9601324FC600B24FE600314800E740413
:10035400800674088002740C252FF52FAFB0EF646B
:100364000F70F975B0FFAFB0EFF460331205E2AF70
:10037400B0EFF4602AAFB0EF2409601A24FC6011D6
:1003840024FE6008147012752F10800D752F1180D3
:1003940008752F128003752F13AFB0EFF470FA2293
:10025D00900000120304AF2F7E00EF7008F5837538
:10026D0082010202FFEF64014E7008F58375820270
:10027D000202FFEF64024E7007F5837582038072F0
:10028D00EF64044E7007F5837582048065EF640595
:10029D004E7007F5837582058058EF64064E700722
:1002AD00F583758206804BEF64084E7007F58375F4
:1002BD008207803EEF64094E7007F58375820880D2
:1002CD0031EF640A4E7007F5837582098024EF645F
:1002DD000D4E7006F583F5828018EF640F4E700792
:1002ED00F58375820B800BEF64644E7005F5837595
:0602FD00820AAE83AF820D
:0103030022D7
:10061F00758901E4F58C758A5CC28DD28CD2A9D212
:02062F00AF22F8
:10063100758901E4F58D758B5CC28FD28EC2ABD208
:02064100AF22E6
:03000B0002019F50
:10019F00C0E0C083C082C0D075D000C000C002C014
:1001AF0003C004C005C006C007758C00758A5CE5E6
:1001BF002E452D7031F52D752E09E5334532701C06
:1001CF00F532753309E50A45097007F509750A0215
:1001DF00801CE50A150A701615098012E5331533D0
:1001EF00700C15328008E52E152E7002152DE50ABC
:1001FF0045097032E5334532702CE52E452D7026BA
:10020F00F534F535F534F535C2977F2C7E0112059F
:10021F00E60535E53570020534C39403E534648093
:06022F00948040E480020F
:10023500D297AB2EAA2DAD33AC32AF0AAE0912055B
:10024500B3D007D006D005D004D003D002D000D05B
:08025500D0D082D083D0E0324A
:03001B00020003DD
:0100030032CA
:10055000D2B0E4F583F582D2A7AF82EF25E024156F
:10056000F8E6F580C2A7D2A67580401205E0A3E5A3
:10057000826408458370E020B0D87F0A7E001205AF
:04058000E620B0CEF3
:010584002254
:1006430012055012061F120631120430120585805E
:01065300F8AE
:030000000203A454
:0C03A400787FE4F6D8FD7581410203EB80
:10001E00E709F608DFFA8046E709F208DFFA803EC4
:10002E0088828C83E709F0A3DFFA8032E309F608B1
:10003E00DFFA8078E309F208DFFA807088828C8319
:10004E00E309F0A3DFFA806489828A83E0A3F608CD
:10005E00DFFA805889828A83E0A3F208DFFA804CA7
:10006E0080D280FA80C680D4806980F2803380107E
:10007E0080A680EA809A80A880DA80E280CA8033E7
:10008E0089828A83ECFAE493A3C8C582C8CCC5835F
:10009E00CCF0A3C8C582C8CCC583CCDFE9DEE7802F
:1000AE000D89828A83E493A3F608DFF9ECFAA9F0AE
:1000BE00EDFB2289828A83ECFAE0A3C8C582C8CC04
:1000CE00C583CCF0A3C8C582C8CCC583CCDFEADE1D
:1000DE00E880DB89828A83E493A3F208DFF980CC7F
:1000EE0088F0EF60010E4E60C388F0ED2402B40478
:1000FE000050B9F582EB2402B4040050AF2323451F
:06010E00822390006E73D5
:10011400C2D5EC30E709B2D5E4C39DFDE49CFCEE06
:1001240030E715B2D5E4C39FFFE49EFE12014AC333
:10013400E49DFDE49CFC800312014A30D507C3E42E
:060144009FFFE49EFE2275
:1003B000020643E493A3F8E493A34003F68001F21A
:1003C00008DFF48029E493A3F85407240CC8C3334E
:1003D000C4540F4420C8834004F456800146F6DF1D
:1003E000E4800B01020408102040809004A9E47E00
:1003F000019360BCA3FF543F30E509541FFEE49312
:10040000A360010ECF54C025E060A840B8E493A3D8
:10041000FAE493A3F8E493A3C8C582C8CAC583CA03
:10042000F0A3C8C582C8CAC583CADFE9DEE780BEBB
:0104E100001A
:10014A00BC000BBE0029EF8DF084FFADF022E4CC99
:10015A00F875F008EF2FFFEE33FEEC33FCEE9DEC62
:10016A00984005FCEE9DFE0FD5F0E9E4CEFD22EDA8
:10017A00F8F5F0EE8420D21CFEADF075F008EF2FF2
:10018A00FFED33FD4007985006D5F0F222C398FDE3
:05019A000FD5F0EA2280
:00000001FF
