:1007BA003F065B4F666D7D077F6F777C395E797187
:0907CA007638373E735C400000F4
:1007D30002100000020C000002080000020A000AD6
:0407E300020E001DE5
:08079E00D2A7C2A77F017E0073
:1007A600EF4E600F7D027CC7DCFEDDFCEF1F70F0B4
:0307B6001E80EDB5
:0107B900221D
:1007E800D2AFD2A9D28C438901758C4CE4F58A2208
:1006A700AA05C2A6EF9007BA93F580D2A6C2A6C242
:1006B700A77580FE12079EEA93F580D2A6C2A6759B
:1006C70080FD12079EEB93F580D2A6C2A67580FB2C
:1006D70012079EE53393F580D2A6C2A67580F7125E
:1006E700079EE53493F580D2A6C2A67580EF120760
:1006F7009EE53593F580D2A6C2A67580DF12079EC8
:10070700E53693F580D2A6C2A67580BF12079EE58F
:100717003793F580D2A6C2A675807FD2A7C2A77FDE
:06072700017E000207A69E
:10072D0075B0F0AFB0EF64F0605F7F057E0012072B
:10073D00A6AFB0EF64F06054AFB0EF2490601B240F
:10074D00C0601224E0600924F07012E4F530800DD1
:10075D007530018008753002800375300375B00F58
:10076D00AFB0EF24F9601324FC600B24FE6003147A
:10077D00800E7404800674088002740C2530F530E8
:10078D00AFB0EF640F600580F77530FFAF307E00BE
:01079D002239
:10000E0075241775257075260075270175280075DE
:10001E002902752A00752B03752C00752D04E4F545
:10002E002EF52FF512751316F514751516F51675A2
:10003E001716F518751916F51A751B16F51C751D7C
:10004E0016F51E751F16F5207521161207E81207F4
:10005E002D8E228F23E523F44522606AC3E5239477
:10006E000AE5229400505FE510705BE511146028DC
:10007E001460351460422403704C852212852313BC
:10008E000511E51170020510E52F452E7038050D8E
:10009E00E50D7032050C802E852214852315051171
:1000AE00E51170220510801E852216852317051175
:1000BE00E51170120510800E852218852319051181
:1000CE00E51170020510E52F452E6003020229E5A9
:1000DE0011640445106003020173E513B52733E57F
:1000EE0012B5262EE515B52929E514B52824E517F0
:1000FE00B52B1FE516B52A1AE519B52D15E518B558
:10010E002C10E4F590F52E752F01F510F511F50C68
:10011E00F50DE513B52725E512B52620E515B5290C
:10012E001BE514B52816E517B52B11E516B52A0CE7
:10013E00E519652D7004E518652C602974FE250FF0
:10014E00F50F74FF350EF50E751200751316751436
:10015E000075151675160075171675180075191693
:10016E00E4F510F511E51D451C6003020229E51F9B
:10017E00451E6003020229E5216401452060030249
:10018E000229F50CF50DF520F521AF13AD15AB17C2
:10019E00851933851B34851D35851F36852137120C
:1001AE0006A7C2907FF47E011207A6D2907FFA7E38
:1001BE00001207A6C2907FF47E011207A6D2907F8E
:1001CE00FA7E001207A6C2907FF47E011207A6D215
:1001DE00907FFA7E001207A675120075131675141D
:1001EE000075151675160075171675180075191603
:1001FE00751A00751B16751C00751D16751E00757B
:10020E001F16752000752116E4F510F511F508F589
:10021E0009F50A750B0AF50E750F1DE52F640145DC
:10022E002E7070F512751316F514751516F51675E4
:10023E001716F518751916AE24AF257C037DE81236
:10024E0005078E1A8F1BAE24AF257C037DE81205A1
:10025E00077E007F64CFCDCFCECCCE1205078E1C8D
:10026E008F1DAE24AF257C007D641205077E007FB6
:10027E000ACFCDCFCECCCE1205078E1E8F1FAE2449
:10028E00AF257C007D0A1205078C208D21752E006E
:10029E00752F02E52F6402452E60030204DAAE14B8
:1002AE00AF15FC7D641204F5AA06AB07AE12AF13B0
:1002BE007C037DE81204F5EF2BFBEE3AFAAE16AF97
:1002CE00177C007D0A1204F5EF2BFFEE3AFEE519BE
:1002DE002FFFE5183EAB07FAE523640C45226003B9
:1002EE000203BFE5196416451870030203BFE51932
:1002FE006416451870030203BFEB2525F525EA3574
:10030E0024F524D3E525940FE52494275070751217
:10031E0000751316751400751516751600751716DB
:10032E00751800751916AE24AF257C037DE81205ED
:10033E00078E1A8F1BAE24AF257C037DE8120507AE
:10034E007E007F64CFCDCFCECCCE1205078E1C8F14
:10035E001DAE24AF257C007D641205077E007F0A4A
:10036E00CFCDCFCECCCE1205078E1E8F1FAE24AFB3
:10037E00257C007D0A1205078C208D21802EC2A3BC
:10038E007FFA7E001207A6D2A3751200751316759A
:10039E001400751516751600751716751800751953
:1003AE0016C3E5259BF525E5249AF524E4F510F50D
:1003BE0011E523640D4522600302047FE5196416DE
:1003CE004518700302047FD3E5259BE5249A4079F6
:1003DE00E5259BF525E5249AF5247512007513166F
:1003EE0075140075151675160075171675180075A7
:1003FE001916FEAF257C037DE81205078E1A8F1B9A
:10040E00AE24AF257C037DE81205077E007F64CF06
:10041E00CDCFCECCCE1205078E1C8F1DAE24AF25B0
:10042E007C007D641205077E007F0ACFCDCFCECC37
:10043E00CE1205078E1E8F1FAE24AF257C007D0ABF
:10044E001205078C208D218023C2A37FFA7E001215
:10045E0007A6D2A37512007513167514007515161E
:10046E00751600751716751800751916E4F510F542
:10047E0011E523640E45227018F512751316F51446
:10048E00751516F516751716F518751916F510F566
:10049E0011E523640F45227033F512751316F5140A
:1004AE00751516F516751716F518751916F51A75BC
:1004BE001B16F51C751D16F51E751F16F5207521DC
:1004CE0016F510F511F52EF52F7590FFAF1BAD1D1E
:1004DE00AB1F852133851334851535851736851960
:0704EE00371206A702005CB3
:03000B0002061ECC
:10061E00C0E0C0F0C0D075D000C000C004C005C09E
:10062E0006C007758C4C758A00C3E50D9401E50C68
:10063E0094004054AE0EAF0F7C007D0A12055C8E06
:10064E001C8F1DAE0EAF0F7C007D0A12055C8C1E3A
:10065E008D1F850A20850B210509E5097002050805
:10066E0064024508700EE50B150B7002150A75082D
:10067E0000750900E50B450A700EE50F150F7002A7
:10068E00150E750A00750B0AD007D006D005D004DA
:09069E00D000D0D0D0F0D0E03241
:0300000002059264
:0C059200787FE4F6D8FD7581370205D9AA
:1004F500EF8DF0A4A8F0CF8CF0A428CE8DF0A42E1B
:02050500FE22D4
:10050700BC000BBE0029EF8DF084FFADF022E4CCD8
:10051700F875F008EF2FFFEE33FEEC33FCEE9DECA1
:10052700984005FCEE9DFE0FD5F0E9E4CEFD22EDE7
:10053700F8F5F0EE8420D21CFEADF075F008EF2F31
:10054700FFED33FD4007985006D5F0F222C398FD22
:050557000FD5F0EA22BF
:10055C00C2D5EC30E709B2D5E4C39DFDE49CFCEEBA
:10056C0030E715B2D5E4C39FFFE49EFE120507C326
:10057C00E49DFDE49CFC800312050730D507C3E421
:06058C009FFFE49EFE2229
:10059E0002000EE493A3F8E493A34003F68001F265
:1005AE0008DFF48029E493A3F85407240CC8C3335E
:1005BE00C4540F4420C8834004F456800146F6DF2D
:1005CE00E4800B01020408102040809007D3E47EE3
:1005DE00019360BCA3FF543F30E509541FFEE49322
:1005EE00A360010ECF54C025E060A840B8E493A3E9
:1005FE00FAE493A3F8E493A3C8C582C8CAC583CA14
:10060E00F0A3C8C582C8CAC583CADFE9DEE780BECB
:0107E7000011
:00000001FF
