:1007A5003F065B4F666D7D077F6F777C395E79719C
:0907B5007638373E735C40000009
:1007BE0002100000020C000002080000020A000AEB
:0407CE00020E001DFA
:08078900D2A7C2A77F017E0088
:10079100EF4E600F7D027CC7DCFEDDFCEF1F70F0C9
:0307A1001E80EDCA
:0107A4002232
:1007D300D2AFD2A9D28C438901758C4CE4F58A221D
:10056800AF13AD15AB17851933851B34851D35853C
:050578001F368521374C
:10057D00AA05C2A6EF9007A593F580D2A6C2A6C282
:10058D00A77580FE120789EA93F580D2A6C2A675DB
:10059D0080FD120789EB93F580D2A6C2A67580FB6C
:1005AD00120789E53393F580D2A6C2A67580F7129E
:1005BD000789E53493F580D2A6C2A67580EF1207A0
:1005CD0089E53593F580D2A6C2A67580DF1207891D
:1005DD00E53693F580D2A6C2A67580BF120789E5D0
:1005ED003793F580D2A6C2A675807FD2A7C2A77F0A
:0605FD00017E00020791DF
:1007180075B0F0AFB0EF64F0605F7F057E00120740
:1007280091AFB0EF64F06054AFB0EF2490601B2439
:10073800C0601224E0600924F07012E4F530800DE6
:100748007530018008753002800375300375B00F6D
:10075800AFB0EF24F9601324FC600B24FE6003148F
:10076800800E7404800674088002740C2530F530FD
:10077800AFB0EF640F600580F77530FFAF307E00D3
:01078800224E
:10000E0075241775257075260075270175280075DE
:10001E002902752A00752B03752C00752D04E4F545
:10002E002EF52FF512751316F514751516F51675A2
:10003E001716F518751916F51A751B16F51C751D7C
:10004E0016F51E751F16F5207521161207D3120709
:10005E00188E228F23E523F44522606AC3E523948C
:10006E000AE5229400505FE510705BE511146028DC
:10007E001460351460422403704C852212852313BC
:10008E000511E51170020510E52F452E7038050D8E
:10009E00E50D7032050C802E852214852315051171
:1000AE00E51170220510801E852216852317051175
:1000BE00E51170120510800E852218852319051181
:1000CE00E51170020510E52F452E6003020214E5BE
:1000DE0011640445106003020173E513B52733E57F
:1000EE0012B5262EE515B52929E514B52824E517F0
:1000FE00B52B1FE516B52A1AE519B52D15E518B558
:10010E002C10E4F590F52E752F01F510F511F50C68
:10011E00F50DE513B52725E512B52620E515B5290C
:10012E001BE514B52816E517B52B11E516B52A0CE7
:10013E00E519652D7004E518652C602974FE250FF0
:10014E00F50F74FF350EF50E751200751316751436
:10015E000075151675160075171675180075191693
:10016E00E4F510F511E51D451C6003020214E51FB0
:10017E00451E6003020214E521640145206003025E
:10018E000214F50CF50DF520F521120568C2907FCD
:10019E00F47E01120791D2907FFA7E00120791C26F
:1001AE00907FF47E01120791D2907FFA7E001207A3
:1001BE0091C2907FF47E01120791D2907FFA7E0059
:1001CE0012079175120075131675140075151675B4
:1001DE001600751716751800751916751A00751B09
:1001EE0016751C00751D16751E00751F16752000E0
:1001FE00752116E4F510F511F508F509F50A750BDC
:10020E000AF50E750F1DE52F6401452E7070F5125F
:10021E00751316F514751516F516751716F518755A
:10022E001916AE24AF257C037DE81204DD8E1A8FDD
:10023E001BAE24AF257C037DE81204DD7E007F64B7
:10024E00CFCDCFCECCCE1204DD8E1C8F1DAE24AF03
:10025E00257C007D641204DD7E007F0ACFCDCFCEDB
:10026E00CCCE1204DD8E1E8F1FAE24AF257C007DFA
:10027E000A1204DD8C208D21752E00752F02E52FBC
:10028E006402452E60030204C5AE14AF15FC7D64F6
:10029E001204CBAA06AB07AE12AF137C037DE81295
:1002AE0004CBEF2BFBEE3AFAAE16AF177C007D0AAD
:1002BE001204CBEF2BFFEE3AFEE5192FFFE5183EA9
:1002CE00AB07FAE523640C452260030203AAE51985
:1002DE006416451870030203AAE5196416451870D2
:1002EE00030203AAEB2525F525EA3524F524D3E5EB
:1002FE0025940FE52494275070751200751316750A
:10030E0014007515167516007517167518007519E3
:10031E0016AE24AF257C037DE81204DD8E1A8F1BEA
:10032E00AE24AF257C037DE81204DD7E007F64CF12
:10033E00CDCFCECCCE1204DD8E1C8F1DAE24AF25BC
:10034E007C007D641204DD7E007F0ACFCDCFCECC43
:10035E00CE1204DD8E1E8F1FAE24AF257C007D0ACB
:10036E001204DD8C208D21802EC2927FFA7E001227
:10037E000791D29275120075131675140075151625
:10038E00751600751716751800751916C3E5259B99
:10039E00F525E5249AF524E4F510F511E523640D11
:1003AE004522600302046AE51964164518700302BB
:1003BE00046AD3E5259BE5249A4079E5259BF5252E
:1003CE00E5249AF52475120075131675140075152B
:1003DE0016751600751716751800751916FEAF25C9
:1003EE007C037DE81204DD8E1A8F1BAE24AF257CB4
:1003FE00037DE81204DD7E007F64CFCDCFCECCCE60
:10040E001204DD8E1C8F1DAE24AF257C007D641280
:10041E0004DD7E007F0ACFCDCFCECCCE1204DD8E92
:10042E001E8F1FAE24AF257C007D0A1204DD8C20AA
:10043E008D218023C2927FFA7E00120791D292758F
:10044E0012007513167514007515167516007517AE
:10045E0016751800751916E4F510F511E523640EDE
:10046E0045227018F512751316F514751516F51636
:10047E00751716F518751916F510F511E523640F95
:10048E0045227033F512751316F514751516F516FB
:10049E00751716F518751916F51A751B16F51C75C0
:1004AE001D16F51E751F16F520752116F510F51182
:0D04BE00F52EF52F7590FF12056802005C09
:03000B0002068F5B
:10068F00C0E0C0F0C0D075D000C000C004C005C02D
:10069F0006C007758C4C758A00C3E50D9401E50CF7
:1006AF0094004054AE0EAF0F7C007D0A1205328EBF
:1006BF001C8F1DAE0EAF0F7C007D0A1205328C1EF3
:1006CF008D1F850A20850B210509E5097002050894
:1006DF0064024508700EE50B150B7002150A7508BC
:1006EF0000750900E50B450A700EE50F150F700236
:1006FF00150E750A00750B0AD007D006D005D00469
:09070F00D000D0D0D0F0D0E032CF
:03000000020603F2
:0C060300787FE4F6D8FD75813702064AC6
:1004CB00EF8DF0A4A8F0CF8CF0A428CE8DF0A42E45
:0204DB00FE22FF
:1004DD00BC000BBE0029EF8DF084FFADF022E4CC03
:1004ED00F875F008EF2FFFEE33FEEC33FCEE9DECCC
:1004FD00984005FCEE9DFE0FD5F0E9E4CEFD22ED12
:10050D00F8F5F0EE8420D21CFEADF075F008EF2F5B
:10051D00FFED33FD4007985006D5F0F222C398FD4C
:05052D000FD5F0EA22E9
:10053200C2D5EC30E709B2D5E4C39DFDE49CFCEEE4
:1005420030E715B2D5E4C39FFFE49EFE1204DDC37B
:10055200E49DFDE49CFC80031204DD30D507C3E476
:060562009FFFE49EFE2253
:10060F0002000EE493A3F8E493A34003F68001F2F3
:10061F0008DFF48029E493A3F85407240CC8C333EC
:10062F00C4540F4420C8834004F456800146F6DFBB
:10063F00E4800B01020408102040809007BEE47E86
:10064F00019360BCA3FF543F30E509541FFEE493B0
:10065F00A360010ECF54C025E060A840B8E493A377
:10066F00FAE493A3F8E493A3C8C582C8CAC583CAA2
:10067F00F0A3C8C582C8CAC583CADFE9DEE780BE5A
:0107D2000026
:00000001FF
