:0B04DB003F065B4F666D7D077F6F00E2
:10039D0002300000080B00010000000200040209F9
:1003AD00000302320000022D0000011300010800BD
:1003BD0001140010157F00BF00DF00EF00F700FBF8
:0803CD0000FD00FE00012F6499
:06049D00C2A67F027E00F2
:1004A300E4FDFCC3ED9FEE6480F8EC648098501586
:1004B300E4FBFA0BBB00010AEB64784A70F50DBD4F
:0504C30000010C80DEC9
:0104C8002211
:1004700074DB2FF58274043EF583E493F52474DB7A
:100480002DF58274043CF583E4934480F52274DBFB
:0D0490002BF58274043AF583E493F52022E5
:10044200E4F583F582D2A7AF82EF25E02415F8E622
:10045200F580C2A7D2A6AF82EF25E02416F8E6F512
:0D0462008012049DA3E5826408458370D8D4
:01046F00226A
:1001FE0075B0F0AFB0EF64F0605912049FAFB0EF7E
:10020E0064F0604FAFB0EF2490601B24C0601224E6
:10021E00E0600924F07012E4F52F800D752F018037
:10022E0008752F028003752F0375B00FAFB0EF2442
:10023E00F9601324FC600B24FE600314800E74041A
:10024E00800674088002740C252FF52FAFB0EF6472
:10025E000F70F975B0FFAFB0EFF4603312049FAFBB
:10026E00B0EFF4602AAFB0EF2409601A24FC6011DD
:10027E0024FE6008147012752F10800D752F1180DA
:10028E0008752F128003752F13AFB0EFF470FA229A
:10000E009000001201FEAF2F7E00EF7008F5837591
:10001E0082010200B0EF64014E7008F58375820212
:10002E000200B0EF64024E7007F583758203807292
:10003E00EF64044E7007F5837582048065EF6405E6
:10004E004E7007F5837582058058EF64064E700773
:10005E00F583758206804BEF64084E7007F5837545
:10006E008207803EEF64094E7007F5837582088023
:10007E0031EF640A4E7007F5837582098024EF64B0
:10008E000D4E7006F583F5828018EF640F4E7007E3
:10009E00F58375820B800BEF64644E7005F58375E6
:0600AE00820AAE83AF825E
:0100B4002229
:1003D600E4FFFEEF25E0240BF8E6FC08E6FDEF253A
:1003E600E02425F8E6FA08E66D7002EA6C6006E499
:1003F600F530F531220FBF00010EEF64044E70D3C5
:06040600753000753101A4
:01040C0022CD
:10032A00E4F534F53575B0FF12000EC3EE6480941F
:10033A00804034D3EF9409EE648094805029AD351F
:10034A00ED25E02425F8A60608A60774DB2FF5821A
:10035A0074043EF583E493FFC374039DFDED25E029
:10036A002416F8A6078018EF640B4E70127516FF54
:10037A007518FF751AFF751CFF74FFF534F53505FE
:10038A0035E53570020534C39404E53464809480FD
:02039A0040938E
:01039C00223E
:1004C900758901E4F58C758A5CC28DD28CD2A9D26A
:0204D900AF2250
:03000B000200B53B
:1000B500C0E0C083C082C0D075D000C000C002C0FF
:1000C50003C004C005C006C007758C00758A5CE5D1
:1000D5002E452D7031F52D752E09E5334532701CF1
:1000E500F532753309E50A45097007F509750A0200
:1000F500801CE50A150A701615098012E5331533BB
:10010500700C15328008E52E152E7002152DE50AA6
:1001150045097019E53345327013E52E452D700DEF
:10012500C2977F2C7E011204A3D2978002D297AB8F
:100135002EAA2DAD33AC32AF0AAE09120470D0072A
:10014500D006D005D004D003D002D000D0D0D082C4
:05015500D083D0E03270
:10040D00D2B0E4F583F582D2A7AF82EF25E02415B3
:10041D00F8E6F580C2A7D2A675804012049DA3E52B
:10042D00826408458370E020B0D87F0A7E001204F4
:04043D00A320B0CE7A
:010441002298
:10015A00E4F536F53712040D1204C975B0FF120022
:10016A000EC3EE64809480403CD3EF9409EE648021
:10017A0094805031AD37ED25E02425F8A60608A66F
:10018A000774DB2FF58274043EF583E493FFC3748E
:10019A00039DFDED25E02416F8A6070537E537701F
:1001AA001E0536801AEF640B4E70147516FF75180B
:1001BA00FF751AFF751CFF74FFF536F5378003E4E7
:1001CA00FEFFE5376404453670241203D6E4F5369B
:1001DA00F537E53145306006C2A9D2AB8010C2A915
:1001EA0074FE2533F53374FF3532F532D2A9120481
:0401FA004202016557
:0300000002029E5B
:0C029E00787FE4F6D8FD7581370202E598
:1002AA0002015AE493A3F8E493A34003F68001F20F
:1002BA0008DFF48029E493A3F85407240CC8C33355
:1002CA00C4540F4420C8834004F456800146F6DF24
:1002DA00E4800B010204081020408090039DE47E14
:1002EA00019360BCA3FF543F30E509541FFEE49319
:1002FA00A360010ECF54C025E060A840B8E493A3E0
:10030A00FAE493A3F8E493A3C8C582C8CAC583CA0A
:10031A00F0A3C8C582C8CAC583CADFE9DEE780BEC2
:0103D5000027
:00000001FF
