:10005D003F065B4F666D7D077F6F777C395E7971EB
:10006D007638373E40003F065B4F666D7D077F6FEC
:10007D00777C395E79713D761E38373E5C73676EDD
:04008D00408000FFB0
:0A00B500EF1F70011E144E70F722B9
:10000300D2B020B0547F0A7E001200B520B04AAFB0
:10001300B0EF2490601B24C0601224E0600924F038
:100023007012E4F509800D750901800875090280D5
:1000330003750903D2B0AFB0EF24F9601324FC6059
:100043000B24FE600314800E74048006740880027F
:0A005300740C2509F50930B0FD22F8
:10009100D2A77580FEC2A7120003D2A6E50990007F
:0800A1007393F580C2A680EF05
:030000000200A952
:0C00A900787FE4F6D8FD75810902009113
:00000001FF
