:10094700FEFDFBF7EFDFBF7F070809000405062A56
:100957000102032D20003D2B3F065B4F666D7D078F
:040967007F6F00FF9F
:10096B00022800000232000002300457022C000063
:0C097B00022A00000224000002260000F6
:10091400E493F580C2A7D2A6EB90095F93F580C259
:05092400A67F017E002A
:10092900D3EF9400EE940040147D727C00ED1D70AD
:0D093900011CED4C70F7EF1F70E61E80E30F
:01094600228E
:0C099E00B2A37F647E00120929B2A322DC
:10098800D2AFD2A9D28C758901758CED758AFF75A5
:06099800370175382C2226
:0406DE00AB07AA06B6
:1006E2007C007D641206538F097C007D64AF03AEEB
:1006F200021206537E007F0ACFCDCFCECCCE120699
:10070200538F08AE02AF037C007D0A120653AB057D
:10071200C2A6E50990095F93F580D2A6C2A6C2A738
:10072200900947E493F580D2A7C2A7120925C2A671
:10073200E50890095F934480F580D2A6C2A6C2A7BD
:10074200900948E493F580D2A7C2A7120925C2A650
:10075200AF03EF90095F93F580D2A6C2A6C2A7901D
:100762000949E493F580D2A7C2A77F017E0002095E
:01077200295D
:04047D008E218F221B
:100481007C037DE8120653AB07AE21AF227C037DCE
:10049100E81206537E007F64CFCDCFCECCCE1206BC
:1004A10053AA07AE21AF227C007D641206537E0061
:1004B1007F0ACFCDCFCECCCE1206538F23AE21AF44
:1004C100227C007D0A120653A905AF237E00D3EFDB
:1004D1009400748094804009EA70067A0A7B0A804D
:1004E10029C3748094804013EF4E700FEA700CEBB7
:1004F10070097A0A75230A7B0A800FEAD394007483
:100501008094804005EB70027B0A7580FFD2A79032
:10051100094D1209147580FFD2A790094CE493F597
:1005210080C2A7D2A6EA12091D7580FFD2A7900941
:100531004BE493F580C2A7D2A6E52312091D75806D
:10054100FFD2A790094AE493F580C2A7D2A6E99009
:0E055100095F93F580C2A67F017E0002092992
:04055F008E218F2238
:100563007C037DE8120653AB07AE21AF227C037DEB
:10057300E81206537E007F64CFCDCFCECCCE1206D9
:1005830053AA07AE21AF227C007D641206537E007E
:100593007F0ACFCDCFCECCCE1206538F23AE21AF61
:1005A300227C007D0A120653A905AF237E00D3EFF8
:1005B3009400748094804009EA70067A0A7B0A806A
:1005C30029C3748094804013EF4E700FEA700CEBD4
:1005D30070097A0A75230A7B0A800FEAD3940074A0
:1005E3008094804005EB70027B0A7580FFD2A79050
:1005F30009471209147580FFD2A7900948E493F5BF
:1006030080C2A7D2A6EA12091D7580FFD2A790095E
:1006130049E493F580C2A7D2A6E52312091D75808C
:10062300FFD2A790094AE493F580C2A7D2A6E99026
:0E063300095F93F580C2A67F017E00020929AF
:10088D0075B0F0AFB0EF64F0607C7F147E0012099C
:10089D0029AFB0EF64F06038052DE52D7002052C01
:1008AD00AFB0EF2490602324C0601724E0600B24C8
:1008BD00F0701DE4F532F533801675320075330195
:1008CD00800E753200753302800675320075330364
:1008DD0075B00FAFB0EF640F6025AFB0EF24F960C6
:1008ED001324FC600B24FE60031480137404800633
:1008FD0074088002740C2533F533E43532F532AFCC
:07090D00B0EF640F70F92246
:10000E00E4F50AF50B750C20F50D750E01F50F755F
:10001E001001F511751201F513751401F51575160C
:10002E0001F517751801F519751A01F51B751C01E7
:10003E00F51F752001120988F53275330D744F25A1
:10004E0033F58274093532F583E493752400F52572
:10005E0012088DE52C60030201C7E52D24FE6032E7
:10006E001470030200F514700302014924036003A7
:10007E000201C7E50E450D70030201C7744F25330B
:10008E00F58274093532F583E493752A00F52B0257
:10009E0001C7E510450F70030201C7744F2533F5F4
:1000AE008274093532F583E493C3940A7480948084
:1000BE0040030201C7C37480948050030201C7AE8F
:1000CE002AAF2B7C007D0A120641744F2533F58230
:1000DE0074093532F583E4932FF52BEC3EF52AE4C3
:1000EE00F50FF5100201C7E512451170030201C7A5
:1000FE00744F2533F58274093532F583E493C39436
:10010E000A7480948040030201C7C37480948050A7
:10011E00030201C7AE2AAF2B7C007D0A1206417482
:10012E004F2533F58274093532F583E4932FF52B81
:10013E00EC3EF52AE4F511F512807EE514451360C8
:10014E0078744F2533F58274093532F583E493C301
:10015E00940A748094805061C374809480405AAE27
:10016E002AAF2B7C007D0A120641744F2533F5828F
:10017E0074093532F583E4932FF52BEC3EF52AE422
:10018E00F513F514E52B65317004E52A6530602909
:10019E0074EC2538F53874FF3537F537E4F52AF564
:1001AE002BF52CF52DF50D750E01F50F751001F5CE
:1001BE0011751201F513751401E52BB5310AE52AF7
:1001CE00B53005E4F515F516AF2BAE2A12047DE514
:1001DE00164515600302005EFFFE12047D751500C4
:1001EE00751601752417752570E4F52CF52DF50D92
:1001FE00750E01F50F751001F511751201F51375D8
:10020E001401F526F527F524F525F590C2AF7524D2
:10021E001775257085240A85250BE52D452C700D47
:10022E00E52745267007AF0BAE0A12055F12088D43
:10023E00744F2533F58274093532F583E493FF64E8
:10024E002A600EEF642B6009EF642D6004EFB42F6B
:10025E0005E4F517F518E52C600302038BE52D2454
:10026E00FE602814607C14700302034024036003B4
:10027E0002038BE50E450D6005E4F526F527752680
:10028E00008F27E4F519F51A02038BE510450F7060
:10029E000302038B744F2533F58274093532F583CF
:1002AE00E4937E00C3940A74809480400302038B0F
:1002BE00C374809480500302038BAE26AF277C005C
:1002CE007D0A120641744F2533F58274093532F5D5
:1002DE0083E4932FF527EC3EF526E4F50FF5100297
:1002EE00038BE5124511700302038B744F2533F512
:1002FE008274093532F583E4937E00C3940A7480C8
:10030E0094805079C3748094804072AE26AF277C5F
:10031E00007D0A120641744F2533F5827409353279
:10032E00F583E4932FF527EC3EF526E4F511F5124F
:10033E00804BE51445136045744F2533F5827409DF
:10034E003532F583E4937E00C3940A748094805012
:10035E002CC3748094804025AE26AF277C007D0A86
:10036E00120641744F2533F58274093532F583E454
:10037E00932FF527EC3EF526E4F513F514E51A4513
:10038E00197007AF27AE2612055FE51845176003F3
:10039E00020228852428852529744F2533F5827479
:1003AE00093532F583E493642B7035E5252527F561
:1003BE000BE5243526F50A852428852529F524857F
:1003CE000B25AF0BFE12055FD3E50B940FE50A6408
:1003DE008094A7404D12099E8528248529258042A8
:1003EE00744F2533F58274093532F583E493FB643B
:1003FE002D703C852428852529C3E5259527F50BE9
:10040E00E5249526F50AF524850B25E4F519F51A4C
:10041E00C3E50A64809480500912099E85282485BC
:10042E002925751700751801E4F526F5278019EBB7
:10043E00B43D32751700751801E4F526F527F51948
:10044E00F51A852824852925F52CF52DF50D750E23
:10045E0001F50F751001F511751201F513751401E3
:0E046E00F519751A01E51C451B6003020228F2
:01047C00225D
:03000B0002077376
:10077300C0E0C0F0C083C082C0D075D000C000C04C
:1007830002C003C004C005C006C007758CED758A9E
:10079300FF0535E5357002053464144534700CF5F6
:1007A30034F535E538153870021537E538453770B7
:1007B3002DF524F525F52AF52BC290F52EF52F7F7F
:1007C3002C7E01120929B290052FE52F7002052E08
:1007D300C39406E52E6480948040E4120988AF3800
:1007E300AE371206DED007D006D005D004D003D032
:0E07F30002D000D0D0D082D083D0F0D0E0323F
:03000000020801F2
:0C080100787FE4F6D8FD758138020848C5
:10064100EF8DF0A4A8F0CF8CF0A428CE8DF0A42ECD
:02065100FE2287
:10065300C2D5EC30E709B2D5E4C39DFDE49CFCEEC2
:1006630030E715B2D5E4C39FFFE49EFE120689C3AB
:10067300E49DFDE49CFC800312068930D507C3E4A6
:060683009FFFE49EFE2231
:10080D0002000EE493A3F8E493A34003F68001F2F3
:10081D0008DFF48029E493A3F85407240CC8C333EC
:10082D00C4540F4420C8834004F456800146F6DFBB
:10083D00E4800B010204081020408090096BE47ED7
:10084D00019360BCA3FF543F30E509541FFEE493B0
:10085D00A360010ECF54C025E060A840B8E493A377
:10086D00FAE493A3F8E493A3C8C582C8CAC583CAA2
:10087D00F0A3C8C582C8CAC583CADFE9DEE780BE5A
:01098700006F
:10068900BC000BBE0029EF8DF084FFADF022E4CC55
:10069900F875F008EF2FFFEE33FEEC33FCEE9DEC1E
:1006A900984005FCEE9DFE0FD5F0E9E4CEFD22ED64
:1006B900F8F5F0EE8420D21CFEADF075F008EF2FAE
:1006C900FFED33FD4007985006D5F0F222C398FD9F
:0506D9000FD5F0EA223C
:00000001FF
