:05013100030CFF010BAF
:10010B00E4FDFCC3ED9FEE6480F8EC648098501521
:10011B00E4FBFA0BBB00010AEB64724A70F50DBDF0
:05012B0000010C80DE64
:0101300022AC
:1000D900E4FDFCC3ED9FEE6480F8EC648098502148
:1000E900E4FBFA900000A3E5826472458370F70B84
:1000F900BB00010ABA03ECBBE8E90DBD00010C80A5
:01010900D223
:01010A0022D2
:10008F0075080075090AE4F50AF50BD3E50B950918
:10009F00E5086480F8E50A64809850EFC291850EF8
:1000AF0082850D83AF0BAE0A12013BD291E5092475
:1000BF00FFFFE50834FFFE850E82850D8312013B9D
:0A00CF00050BE50B70C5050A80C1A2
:03000000020003F8
:0C000300787FE4F6D8FD75810E02004AFB
:060137008A838982E47353
:10000F0002008FE493A3F8E493A34003F68001F278
:10001F0008DFF48029E493A3F85407240CC8C333F2
:10002F00C4540F4420C8834004F456800146F6DFC1
:10003F00E4800B0102040810204080900131E47E1F
:10004F00019360BCA3FF543F30E509541FFEE493B6
:10005F00A360010ECF54C025E060A840B8E493A37D
:10006F00FAE493A3F8E493A3C8C582C8CAC583CAA8
:10007F00F0A3C8C582C8CAC583CADFE9DEE780BE60
:0101360000C8
:00000001FF
