:050137000308FF00FFBA
:1000FF00E4FDFCC3ED9FEE6480F8EC64809850152E
:10010F00E4FBFA0BBB00010AEB64724A70F50DBDFC
:05011F0000010C80DE70
:0101240022B8
:1000CD00E4FDFCC3ED9FEE6480F8EC648098502154
:1000DD00E4FBFA900000A3E5826472458370F70B90
:1000ED00BB00010ABA03ECBBE8E90DBD00010C80B1
:0100FD00D230
:0100FE0022DF
:10012500E4FDFCC3ED9FEC9E50070DBD00010C8066
:01013500F2D7
:0101360022A6
:10008F00750B00750C0AD2A775807FC2A7D2A67513
:10009F00807DC2A6850A82850983AF0CAE0B120143
:1000AF0041D2A77580BFC2A7D2A6758087C2A68589
:0E00BF000A82850983AF0CAE0B12014180C886
:03000000020003F8
:0C000300787FE4F6D8FD75810C02004AFD
:06013D008A838982E4734D
:10000F0002008FE493A3F8E493A34003F68001F278
:10001F0008DFF48029E493A3F85407240CC8C333F2
:10002F00C4540F4420C8834004F456800146F6DFC1
:10003F00E4800B0102040810204080900137E47E19
:10004F00019360BCA3FF543F30E509541FFEE493B6
:10005F00A360010ECF54C025E060A840B8E493A37D
:10006F00FAE493A3F8E493A3C8C582C8CAC583CAA8
:10007F00F0A3C8C582C8CAC583CADFE9DEE780BE60
:01013C0000C2
:00000001FF
