:0500EF000308FF00C141
:1000C100E4FDFCC3ED9FEE6480F8EC64809850156C
:1000D100E4FBFA0BBB00010AEB64724A70F50DBD3B
:0500E10000010C80DEAF
:0100E60022F7
:10008F00E4FDFCC3ED9FEE6480F8EC648098502192
:10009F00E4FBFA900000A3E5826472458370F70BCE
:1000AF00BB00010ABA03ECBBE8E90DBD00010C80EF
:0100BF00D26E
:0100C000221D
:0800E700D2B1A2B1929080FA9F
:03000000020003F8
:0C000300787FE4F6D8FD75810A02004AFF
:10000F000200E7E493A3F8E493A34003F68001F220
:10001F0008DFF48029E493A3F85407240CC8C333F2
:10002F00C4540F4420C8834004F456800146F6DFC1
:10003F00E4800B01020408102040809000EFE47E62
:10004F00019360BCA3FF543F30E509541FFEE493B6
:10005F00A360010ECF54C025E060A840B8E493A37D
:10006F00FAE493A3F8E493A3C8C582C8CAC583CAA8
:10007F00F0A3C8C582C8CAC583CADFE9DEE780BE60
:0100F400000B
:00000001FF
