:100107003F065B4F666D7D077F6F777C395E797140
:100117003D761E38373E5C73676E408000FFFEFDFC
:06012700FBF7EFDFBF7FD4
:03013D00010800B6
:1000E100E4FDFCC3ED9FEE6480F8EC64809850154C
:1000F100E4FBFA0BBB00010AEB64784A70F50DBD15
:0501010000010C80DE8E
:0101060022D6
:10012D00758901758CFC758A18D2AFD2A9D28C2233
:0500030012012D80FE3A
:03000B0002009A56
:10009A00C0E0C083C082C0D0758CFC758A18C3E5E5
:1000AA000894087480948050227580FFD2A7E508CE
:1000BA0090012593F580C2A77580FFD2A6E5089026
:1000CA00010793F580C2A605088003750800D0D001
:0700DA00D082D083D0E03298
:0300000002000EED
:0C000E00787FE4F6D8FD758108020055EB
:10001A00020003E493A3F8E493A34003F68001F2F9
:10002A0008DFF48029E493A3F85407240CC8C333E7
:10003A00C4540F4420C8834004F456800146F6DFB6
:10004A00E4800B010204081020408090013DE47E08
:10005A00019360BCA3FF543F30E509541FFEE493AB
:10006A00A360010ECF54C025E060A840B8E493A372
:10007A00FAE493A3F8E493A3C8C582C8CAC583CA9D
:10008A00F0A3C8C582C8CAC583CADFE9DEE780BE55
:0101400000BE
:00000001FF
