:10008F003F065B4F666D7D077F6F777C395E7971B9
:10009F003D761E38373E5C73676E40000000FE00F1
:0D00AF00FD00FB00F700EF00DF00BF007F49
:050135000308FF00E8D3
:1000E800E4FDFCC3ED9FEC9E5015E4FBFA0BBB004E
:0F00F800010AEB64724A70F50DBD00010C80E443
:0101070022D5
:1000BC00E4FDFCC3ED9FEC9E5021E4FBFA900000A4
:1000CC00A3E5826472458370F70BBB00010ABA0387
:0B00DC00ECBBE8E90DBD00010C80D872
:0100E70022F6
:10012300E4FDFCC3ED9FEC9E50070DBD00010C8068
:01013300F2D9
:0101340022A8
:100108009000AC740193F580D2A7C2A790008FE449
:0B011800934480F580D2A6C2A680FEB2
:03000000020003F8
:0C000300787FE4F6D8FD75810A02004AFF
:10000F00020108E493A3F8E493A34003F68001F2FE
:10001F0008DFF48029E493A3F85407240CC8C333F2
:10002F00C4540F4420C8834004F456800146F6DFC1
:10003F00E4800B0102040810204080900135E47E1B
:10004F00019360BCA3FF543F30E509541FFEE493B6
:10005F00A360010ECF54C025E060A840B8E493A37D
:10006F00FAE493A3F8E493A3C8C582C8CAC583CAA8
:10007F00F0A3C8C582C8CAC583CADFE9DEE780BE60
:01013A0000C4
:00000001FF
