:0B024200010B00010C000308FF020A82
:10020A00E4FDFCC3ED9FEE6480F8EC648098501521
:10021A00E4FBFA0BBB00010AEB64724A70F50DBDF0
:05022A0000010C80DE64
:01022F0022AC
:1001AC00E4FDFCC3ED9FEE6480F8EC648098502174
:1001BC00E4FBFA900000A3E5826472458370F70BB0
:1001CC00BB00010ABA03ECBBE8E90DBD00010C80D1
:0101DC00D250
:0101DD0022FF
:10023000E4FDFCC3ED9FEC9E50070DBD00010C805A
:01024000F2CB
:01024100229A
:1001DE00EF25E0FFEE33AB07FAE4F9F8FF7E107D72
:1001EE000EFC120168C3E49FFFE49EAD07F50B8D74
:0B01FE000C758CFF758AFED2A9D28C14
:0102090022D2
:05000300C2A9C28C221D
:03000B0002024EA0
:09024E00850B8C850C8AB2A332E9
:05025700E4F59080FBBE
:030000000200DC1F
:0C00DC00787FE4F6D8FD75810C0201234A
:10016800C2D5E830E70FB2D5E4C39BFBE49AFAE4C2
:1001780099F9E498F8EC30E717B2D512019E12000D
:100188004AE4C39BFBE49AFAE499F9E498F88003FB
:1001980012004A30D50DE4C39FFFE49EFEE49DFDA6
:0401A800E49CFC22B5
:1000E800020257E493A3F8E493A34003F68001F2D5
:1000F80008DFF48029E493A3F85407240CC8C33319
:10010800C4540F4420C8834004F456800146F6DFE7
:10011800E4800B0102040810204080900242E47E33
:10012800019360BCA3FF543F30E509541FFEE493DC
:10013800A360010ECF54C025E060A840B8E493A3A3
:10014800FAE493A3F8E493A3C8C582C8CAC583CACE
:10015800F0A3C8C582C8CAC583CADFE9DEE780BE86
:01024D0000B0
:10000E0075F008758200EF2FFFEE33FECD33CDCCA9
:10001E0033CCC58233C5829BED9AEC99E58298402C
:10002E000CF582EE9BFEED9AFDEC99FC0FD5F0D609
:10003E00E4CEFBE4CDFAE4CCF9A88222B800C1B933
:10004E000059BA002DEC8BF084CFCECDFCE5F0CB71
:10005E00F97818EF2FFFEE33FEED33FDEC33FCEBAA
:10006E0033FB10D703994004EB99FB0FD8E5E4F965
:10007E00FA227818EF2FFFEE33FEED33FDEC33FC52
:10008E00C933C910D7059BE99A4007EC9BFCE99A46
:10009E00F90FD8E0E4C9FAE4CCFB2275F010EF2F8B
:1000AE00FFEE33FEED33FDCC33CCC833C810D7078B
:1000BE009BEC9AE899400AED9BFDEC9AFCE899F8C6
:0E00CE000FD5F0DAE4CDFBE4CCFAE4C8F92259
:00000001FF
