:0B011B003F065B4F666DFEFDFBF7EF3B
:0C010E00020A000002080000020C0000C1
:1000EE00E4FDFCC3ED9FEC9E5015E4FBFA0BBB0048
:0F00FE00010AEB64324A70F50DBD00010C80E47D
:01010D0022CF
:10008F00E4F50AF50BF508F509F50CF50DD2A70502
:10009F000BE50BAE0A7002050A142421F5827401D8
:1000AF003EF583E493F580C2A7D2A60509E509AE14
:1000BF00087002050814241BF58274013EF583E4D1
:1000CF0093F580C2A67F017E001200EE050DE50DAF
:0F00DF007002050CC39405E50C940040B080A19D
:03000000020003F8
:0C000300787FE4F6D8FD75810D02004AFC
:10000F0002008FE493A3F8E493A34003F68001F278
:10001F0008DFF48029E493A3F85407240CC8C333F2
:10002F00C4540F4420C8834004F456800146F6DFC1
:10003F00E4800B010204081020408090010EE47E42
:10004F00019360BCA3FF543F30E509541FFEE493B6
:10005F00A360010ECF54C025E060A840B8E493A37D
:10006F00FAE493A3F8E493A3C8C582C8CAC583CAA8
:10007F00F0A3C8C582C8CAC583CADFE9DEE780BE60
:01011A0000E4
:00000001FF
