:10030200FEFDFBF7EFDFBF7F3F065B4F666D7D07AC
:050312007F6F00FFB643
:1002CE0002130001081700460064007A008D020F29
:0E02DE000000020B00000209000002110000E7
:1002AE00D3EF9400EE6480948040147D727C00ED58
:0F02BE001D70011CED4C70F7EF1F70E41E80E106
:0102CD00220E
:10027E007C007D0A1201F3AF05C2A6EF3395E0FEB6
:10028E00740A2FF58274033EF583E493F580D2A6AB
:0F029E00C2A6C2A7900302E493F580D2A7C2A71D
:0102AD00222E
:1001680012031712032A7515007516FEE4F509F532
:100178000AF511F51212001EE5102401FFE4350FEF
:10018800FE12027E20B00675130075140120B10618
:1001980074FFF513F51420B3157F017E001202AE2B
:1001A80020B30B0510E5107002050F30B3FD20B227
:1001B800157F017E001202AE20B20BE510151070FB
:1001C80002150F30B2FDC3E50F648094805007E438
:1001D800F50FF510809FD3E5109403E50F64809424
:0B01E800804092750F00751003808AA4
:10031700758900438911758CFF758AA3D2A9D2AF5D
:03032700D28C2253
:10032A00758900438911758D4B758BFDD2ABD2AFA0
:03033A00D28E223E
:03000B000202ED01
:1002ED00C0E0758CFF758AA3050E050CE50C700238
:0502FD00050BD0E0320A
:03001B0002033DA0
:10033D00C0E0758D4B758BFD050AE50A7002050948
:03034D00D0E032CB
:10001E00E51025E02417F8E6FE08E6FFC3E50E9F7F
:10002E00EE6480F87480984015E4F50EAD08FCED92
:10003E007004050D8008ED64014C7002150DAD0DB8
:10004E007C00D3ED9400748094805005E4F5088014
:10005E0010C3ED9FEE6480F8EC6480984003750841
:10006E0001E50EC3950D500585169080037590FF22
:10007E00E50A64164509700D0512E51270020511A8
:10008E00E4F509F50AE5102401FFE4350FFEEFB59E
:10009E00121FEEB5111BAF16A814EF08800123D85E
:1000AE00FD751500F516E4F511F512F50EF508F5CA
:1000BE000DE516647F4515700774FFF513F51422D0
:0E00CE00E51664FE45157005F5137514012244
:030000000200DC1F
:0C00DC00787FE4F6D8FD75811E02012338
:1001F300C2D5EC30E709B2D5E4C39DFDE49CFCEE27
:1002030030E715B2D5E4C39FFFE49EFE120229C373
:10021300E49DFDE49CFC800312022930D507C3E46E
:060223009FFFE49EFE2295
:1000E800020168E493A3F8E493A34003F68001F2C5
:1000F80008DFF48029E493A3F85407240CC8C33319
:10010800C4540F4420C8834004F456800146F6DFE7
:10011800E4800B01020408102040809002CEE47EA7
:10012800019360BCA3FF543F30E509541FFEE493DC
:10013800A360010ECF54C025E060A840B8E493A3A3
:10014800FAE493A3F8E493A3C8C582C8CAC583CACE
:10015800F0A3C8C582C8CAC583CADFE9DEE780BE86
:0102EC000011
:10022900BC000BBE0029EF8DF084FFADF022E4CCB9
:10023900F875F008EF2FFFEE33FEEC33FCEE9DEC82
:10024900984005FCEE9DFE0FD5F0E9E4CEFD22EDC8
:10025900F8F5F0EE8420D21CFEADF075F008EF2F12
:10026900FFED33FD4007985006D5F0F222C398FD03
:050279000FD5F0EA22A0
:00000001FF
