:030000000200C239
:0C00C200787FE4F6D8FD75810E0201097C
:050235003F065B4F666F
:0B022400010C7F020A0002020800012A
:1001BA00AC0DAD0EAE0AAF0B120212C374649FFFF0
:0301CA00E49EFEB2
:1001CD00E4FDFCC3ED9FEE6480F8EC64809850155F
:1001DD00E4FBFA0BBB00010AEB640B4A70F50DBD95
:0501ED0000010C80DEA2
:0101F20022EA
:10014E0020B0227F027E001201CD20B05ED3E50BDF
:10015E009401E50A94004008E50B150B7002150A90
:10016E0020B04880FB20B1227F027E001201CD20FC
:10017E00B139C3E50B9404E50A94005008050BE56C
:10018E000B7002050A20B12380FB20B21E7F027E77
:10019E00001201CD20B214E509450870031F80043A
:0C01AE007E007F008E088F0930B2FD2219
:0301F30012014EA8
:1001F600D2A77580FEC2A7D2A67435250BF58274E8
:0C02060002350AF583E493F580C2A622BD
:100003001201F3750D00750E01850C90AC0DAD0E4C
:10001300AE0AAF0B1202121201CD7590FF1201BA94
:100023001201F3050EE50E7002050DD39464E50D80
:100033006480948040D37590FF750D00750E018523
:100043000C901201BA7590FFAC0DAD0EAE0AAF0B5A
:100053001202121201CD12014E1201F6050EE50E27
:100063007002050DD39464E50D6480948040D0E55F
:1000730009640145087008E50C64FE6002801AAF4C
:100083000C7E00EF64FE7006F508F5098022EF642C
:100093007F4E7010F508750901E50CC313F50C4389
:1000A3000C808015E5094508700FEF647F4E6009E9
:0F00B300E50C25E0F50C430C0112014E0201F69D
:0502300012000380FB39
:1000CE00020230E493A3F8E493A34003F68001F216
:1000DE0008DFF48029E493A3F85407240CC8C33333
:1000EE00C4540F4420C8834004F456800146F6DF02
:1000FE00E4800B0102040810204080900224E47E6C
:10010E00019360BCA3FF543F30E509541FFEE493F6
:10011E00A360010ECF54C025E060A840B8E493A3BD
:10012E00FAE493A3F8E493A3C8C582C8CAC583CAE8
:10013E00F0A3C8C582C8CAC583CADFE9DEE780BEA0
:01022F0000CE
:10021200EF8DF0A4A8F0CF8CF0A428CE8DF0A42E00
:02022200FE22BA
:00000001FF
